{
  "address": "0x53CD07B68bF5e17FD601a7C56f3f27527EdF2eA3",
  "abi": [
    {
      "inputs": [
        {
          "internalType": "address",
          "name": "_battleStation",
          "type": "address"
        }
      ],
      "stateMutability": "nonpayable",
      "type": "constructor"
    },
    {
      "inputs": [],
      "name": "InvalidSessionWallet",
      "type": "error"
    },
    {
      "anonymous": false,
      "inputs": [
        {
          "indexed": true,
          "internalType": "address",
          "name": "hero",
          "type": "address"
        },
        {
          "indexed": true,
          "internalType": "address",
          "name": "owner",
          "type": "address"
        }
      ],
      "name": "HeroCreated",
      "type": "event"
    },
    {
      "inputs": [],
      "name": "battleStation",
      "outputs": [
        {
          "internalType": "address",
          "name": "",
          "type": "address"
        }
      ],
      "stateMutability": "view",
      "type": "function"
    },
    {
      "inputs": [
        {
          "internalType": "string",
          "name": "_name",
          "type": "string"
        },
        {
          "internalType": "address",
          "name": "_sessionWallet",
          "type": "address"
        },
        {
          "internalType": "enum HeroClass",
          "name": "_heroClass",
          "type": "uint8"
        },
        {
          "internalType": "enum StatsKey[]",
          "name": "_keys",
          "type": "uint8[]"
        },
        {
          "internalType": "uint16[]",
          "name": "_values",
          "type": "uint16[]"
        }
      ],
      "name": "createHero",
      "outputs": [],
      "stateMutability": "payable",
      "type": "function"
    },
    {
      "inputs": [
        {
          "internalType": "address",
          "name": "_owner",
          "type": "address"
        }
      ],
      "name": "getHeroes",
      "outputs": [
        {
          "internalType": "address[]",
          "name": "",
          "type": "address[]"
        }
      ],
      "stateMutability": "view",
      "type": "function"
    }
  ],
  "transactionHash": "0x55f6bd50d721dee41b0ee87358faaf0a815effdedcb1f3cb6f7cf647f9eb9dd0",
  "args": [
    "0xC4313722eE9370121c0805baD43a9911fA86C28F"
  ],
  "numDeployments": 3,
  "solcInputHash": "ba354fb8ed651461b4f4b47842ce758e",
  "bytecode": "0x608060405234801561001057600080fd5b5060405161182338038061182383398101604081905261002f91610054565b600080546001600160a01b0319166001600160a01b0392909216919091179055610084565b60006020828403121561006657600080fd5b81516001600160a01b038116811461007d57600080fd5b9392505050565b611790806100936000396000f3fe608060405260043610620000385760003560e01c806316d5cf7f146200003d578063d8d70b74146200007a578063daf9b9d814620000b5575b600080fd5b3480156200004a57600080fd5b50620000626200005c366004620002b1565b620000ce565b604051620000719190620002d6565b60405180910390f35b3480156200008757600080fd5b506000546200009c906001600160a01b031681565b6040516001600160a01b03909116815260200162000071565b620000cc620000c636600462000384565b62000146565b005b6001600160a01b0381166000908152600160209081526040918290208054835181840281018401909452808452606093928301828280156200013a57602002820191906000526020600020905b81546001600160a01b031681526001909101906020018083116200011b575b50505050509050919050565b60008060009054906101000a90046001600160a01b0316338a8a8989898989604051620001739062000286565b620001879998979695949392919062000505565b604051809103906000f080158015620001a4573d6000803e3d6000fd5b5033600090815260016020818152604083208054928301815583529091200180546001600160a01b0319166001600160a01b0383161790559050341562000245576001600160a01b0387166200020d5760405163db0c014b60e01b815260040160405180910390fd5b6040516001600160a01b038816903480156108fc02916000818181858888f1935050505015801562000243573d6000803e3d6000fd5b505b60405133906001600160a01b038316907fe114d6caa5ccb4f429ca2157b2a8dc586e2063c0985be212138fcdbd38afefe790600090a3505050505050505050565b6111b080620005ab83390190565b80356001600160a01b0381168114620002ac57600080fd5b919050565b600060208284031215620002c457600080fd5b620002cf8262000294565b9392505050565b6020808252825182820181905260009190848201906040850190845b81811015620003195783516001600160a01b031683529284019291840191600101620002f2565b50909695505050505050565b803560058110620002ac57600080fd5b60008083601f8401126200034857600080fd5b50813567ffffffffffffffff8111156200036157600080fd5b6020830191508360208260051b85010111156200037d57600080fd5b9250929050565b60008060008060008060008060a0898b031215620003a157600080fd5b883567ffffffffffffffff80821115620003ba57600080fd5b818b0191508b601f830112620003cf57600080fd5b813581811115620003df57600080fd5b8c6020828501011115620003f257600080fd5b602083019a50809950506200040a60208c0162000294565b97506200041a60408c0162000325565b965060608b01359150808211156200043157600080fd5b6200043f8c838d0162000335565b909650945060808b01359150808211156200045957600080fd5b50620004688b828c0162000335565b999c989b5096995094979396929594505050565b818352600060208085019450826000805b86811015620004b857823560038110620004a5578283fd5b885296830196918301916001016200048d565b50959695505050505050565b818352600060208085019450826000805b86811015620004b857823561ffff8116808214620004f1578384fd5b8952509683019691830191600101620004d5565b6001600160a01b038a811682528916602082015260c06040820181905281018790526000878960e0840137600082890160e00152601f8801601f19168201600588106200056257634e487b7160e01b600052602160045260246000fd5b87606084015260e08382030160808401526200058360e0820187896200047c565b905082810360a08401526200059a818587620004c4565b9c9b50505050505050505050505056fe60806040523480156200001157600080fd5b50604051620011b0380380620011b08339810160408190526200003491620003dd565b60008360048111156200004b576200004b62000519565b036200006a57604051630d086d5560e41b815260040160405180910390fd5b6001620000788582620005bd565b50600280546001600160a01b038088166001600160a01b0319928316179092556000805492891691831682178155859290916001600160a81b031990911617600160a01b836004811115620000d157620000d162000519565b0217905550856001600160a01b031663ae0616fa6040518163ffffffff1660e01b8152600401600060405180830381600087803b1580156200011257600080fd5b505af115801562000127573d6000803e3d6000fd5b505050506200013d82826200014960201b60201c565b50505050505062000797565b6000546040516310fcd9b360e31b81526001600160a01b03909116906387e6cd98906200017d9085908590600401620006ac565b600060405180830381600087803b1580156200019857600080fd5b505af1158015620001ad573d6000803e3d6000fd5b5050505060005b825181101562000246577f13b8fd1d9b7bee6f52686850935c2db674d346b606dc34d4236db7560321938b838281518110620001f457620001f462000738565b602002602001015183838151811062000211576200021162000738565b6020026020010151604051620002299291906200074e565b60405180910390a1806200023d816200076f565b915050620001b4565b505050565b80516001600160a01b03811681146200026357600080fd5b919050565b634e487b7160e01b600052604160045260246000fd5b604051601f8201601f191681016001600160401b0381118282101715620002a957620002a962000268565b604052919050565b8051600581106200026357600080fd5b60006001600160401b03821115620002dd57620002dd62000268565b5060051b60200190565b600082601f830112620002f957600080fd5b81516020620003126200030c83620002c1565b6200027e565b82815260059290921b840181019181810190868411156200033257600080fd5b8286015b848110156200035e57805160038110620003505760008081fd5b835291830191830162000336565b509695505050505050565b600082601f8301126200037b57600080fd5b815160206200038e6200030c83620002c1565b82815260059290921b84018101918181019086841115620003ae57600080fd5b8286015b848110156200035e57805161ffff81168114620003cf5760008081fd5b8352918301918301620003b2565b60008060008060008060c08789031215620003f757600080fd5b62000402876200024b565b95506020620004138189016200024b565b60408901519096506001600160401b03808211156200043157600080fd5b818a0191508a601f8301126200044657600080fd5b8151818111156200045b576200045b62000268565b6200046f601f8201601f191685016200027e565b8181528c858386010111156200048457600080fd5b60005b82811015620004a457848101860151828201870152850162000487565b5060008583830101528098505050620004c060608b01620002b1565b955060808a0151925080831115620004d757600080fd5b620004e58b848c01620002e7565b945060a08a0151925080831115620004fc57600080fd5b50506200050c89828a0162000369565b9150509295509295509295565b634e487b7160e01b600052602160045260246000fd5b600181811c908216806200054457607f821691505b6020821081036200056557634e487b7160e01b600052602260045260246000fd5b50919050565b601f8211156200024657600081815260208120601f850160051c81016020861015620005945750805b601f850160051c820191505b81811015620005b557828155600101620005a0565b505050505050565b81516001600160401b03811115620005d957620005d962000268565b620005f181620005ea84546200052f565b846200056b565b602080601f831160018114620006295760008415620006105750858301515b600019600386901b1c1916600185901b178555620005b5565b600085815260208120601f198616915b828110156200065a5788860151825594840194600190910190840162000639565b5085821015620006795787850151600019600388901b60f8161c191681555b5050505050600190811b01905550565b60038110620006a857634e487b7160e01b600052602160045260246000fd5b9052565b604080825283519082018190526000906020906060840190828701845b82811015620006f057620006df84835162000689565b9284019290840190600101620006c9565b5050508381038285015284518082528583019183019060005b818110156200072b57835161ffff168352928401929184019160010162000709565b5090979650505050505050565b634e487b7160e01b600052603260045260246000fd5b604081016200075e828562000689565b61ffff831660208301529392505050565b6000600182016200079057634e487b7160e01b600052601160045260246000fd5b5060010190565b610a0980620007a76000396000f3fe608060405234801561001057600080fd5b50600436106100885760003560e01c8063893d20e81161005b578063893d20e814610135578063b84441fd1461015a578063c59d484714610170578063d8d70b741461018557600080fd5b806306fdde031461008d578063621d1272146100ab57806365881d2e146100cc57806387e6cd9814610120575b600080fd5b610095610198565b6040516100a291906104ee565b60405180910390f35b6000546100bf90600160a01b900460ff1681565b6040516100a29190610552565b6100d461022a565b6040516100a29190815163ffffffff9081168252602080840151821690830152604080840151821690830152606080840151821690830152608092830151169181019190915260a00190565b61013361012e36600461065e565b6102c2565b005b6002546001600160a01b03165b6040516001600160a01b0390911681526020016100a2565b6101626102fb565b6040519081526020016100a2565b610178610368565b6040516100a29190610725565b600054610142906001600160a01b031681565b6060600180546101a79061075b565b80601f01602080910402602001604051908101604052809291908181526020018280546101d39061075b565b80156102205780601f106101f557610100808354040283529160200191610220565b820191906000526020600020905b81548152906001019060200180831161020357829003601f168201915b5050505050905090565b6040805160a081018252600080825260208201819052818301819052606082018190526080820181905254915163120af9ed60e11b815230600482015290916001600160a01b031690632415f3da9060240160a060405180830381865afa158015610299573d6000803e3d6000fd5b505050506040513d601f19601f820116820180604052508101906102bd91906107ae565b905090565b6002546001600160a01b031633146102ed57604051631104846560e31b815260040160405180910390fd5b6102f782826103dd565b5050565b60008054604051637d665f7f60e01b81523060048201526001600160a01b0390911690637d665f7f90602401602060405180830381865afa158015610344573d6000803e3d6000fd5b505050506040513d601f19601f820116820180604052508101906102bd919061083c565b6103706104cf565b60005460405163611fc2eb60e11b81523060048201526001600160a01b039091169063c23f85d69060240161020060405180830381865afa1580156103b9573d6000803e3d6000fd5b505050506040513d601f19601f820116820180604052508101906102bd9190610855565b6000546040516310fcd9b360e31b81526001600160a01b03909116906387e6cd989061040f90859085906004016108f1565b600060405180830381600087803b15801561042957600080fd5b505af115801561043d573d6000803e3d6000fd5b5050505060005b82518110156104ca577f13b8fd1d9b7bee6f52686850935c2db674d346b606dc34d4236db7560321938b83828151811061048057610480610977565b602002602001015183838151811061049a5761049a610977565b60200260200101516040516104b092919061098d565b60405180910390a1806104c2816109ac565b915050610444565b505050565b6040518061020001604052806010906020820280368337509192915050565b600060208083528351808285015260005b8181101561051b578581018301518582016040015282016104ff565b506000604082860101526040601f19601f8301168501019250505092915050565b634e487b7160e01b600052602160045260246000fd5b60208101600583106105665761056661053c565b91905290565b634e487b7160e01b600052604160045260246000fd5b604051601f8201601f1916810167ffffffffffffffff811182821017156105ab576105ab61056c565b604052919050565b600067ffffffffffffffff8211156105cd576105cd61056c565b5060051b60200190565b61ffff811681146105e757600080fd5b50565b600082601f8301126105fb57600080fd5b8135602061061061060b836105b3565b610582565b82815260059290921b8401810191818101908684111561062f57600080fd5b8286015b84811015610653578035610646816105d7565b8352918301918301610633565b509695505050505050565b6000806040838503121561067157600080fd5b823567ffffffffffffffff8082111561068957600080fd5b818501915085601f83011261069d57600080fd5b813560206106ad61060b836105b3565b82815260059290921b840181019181810190898411156106cc57600080fd5b948201945b838610156106f8578535600381106106e95760008081fd5b825294820194908201906106d1565b9650508601359250508082111561070e57600080fd5b5061071b858286016105ea565b9150509250929050565b6102008101818360005b601081101561075257815161ffff1683526020928301929091019060010161072f565b50505092915050565b600181811c9082168061076f57607f821691505b60208210810361078f57634e487b7160e01b600052602260045260246000fd5b50919050565b805163ffffffff811681146107a957600080fd5b919050565b600060a082840312156107c057600080fd5b60405160a0810181811067ffffffffffffffff821117156107e3576107e361056c565b6040526107ef83610795565b81526107fd60208401610795565b602082015261080e60408401610795565b604082015261081f60608401610795565b606082015261083060808401610795565b60808201529392505050565b60006020828403121561084e57600080fd5b5051919050565b600061020080838503121561086957600080fd5b83601f84011261087857600080fd5b60405181810181811067ffffffffffffffff8211171561089a5761089a61056c565b6040529083019080858311156108af57600080fd5b845b838110156108d25780516108c4816105d7565b8252602091820191016108b1565b509095945050505050565b600381106108ed576108ed61053c565b9052565b604080825283519082018190526000906020906060840190828701845b82811015610931576109218483516108dd565b928401929084019060010161090e565b5050508381038285015284518082528583019183019060005b8181101561096a57835161ffff168352928401929184019160010161094a565b5090979650505050505050565b634e487b7160e01b600052603260045260246000fd5b6040810161099b82856108dd565b61ffff831660208301529392505050565b6000600182016109cc57634e487b7160e01b600052601160045260246000fd5b506001019056fea2646970667358221220b67e8211a4f07dff838ae4303dd6055c1307c176c204b7ce7c955dd4b49bd21264736f6c63430008110033a264697066735822122076468acc5cde167db257d21d1405ece84a9154f2a152741716f71099068070a664736f6c63430008110033",
  "devdoc": {
    "kind": "dev",
    "methods": {},
    "version": 1
  },
  "userdoc": {
    "kind": "user",
    "methods": {},
    "version": 1
  },
  "storageLayout": {
    "storage": [
      {
        "astId": 7560,
        "contract": "contracts/citadel/HeroesCitadel.sol:HeroesCitadel",
        "label": "battleStation",
        "offset": 0,
        "slot": "0",
        "type": "t_address"
      },
      {
        "astId": 7565,
        "contract": "contracts/citadel/HeroesCitadel.sol:HeroesCitadel",
        "label": "_heroes",
        "offset": 0,
        "slot": "1",
        "type": "t_mapping(t_address,t_array(t_address)dyn_storage)"
      }
    ],
    "types": {
      "t_address": {
        "encoding": "inplace",
        "label": "address",
        "numberOfBytes": "20"
      },
      "t_array(t_address)dyn_storage": {
        "base": "t_address",
        "encoding": "dynamic_array",
        "label": "address[]",
        "numberOfBytes": "32"
      },
      "t_mapping(t_address,t_array(t_address)dyn_storage)": {
        "encoding": "mapping",
        "key": "t_address",
        "label": "mapping(address => address[])",
        "numberOfBytes": "32",
        "value": "t_array(t_address)dyn_storage"
      }
    }
  }
}